:1000000059EF01F00000000000EF00F000000000D8
:0A0010000000000000000000F3D71C
:10001C000F0E0C6E470E0D6E0D2EFED70C2EFCD750
:06002C00000000001200BC
:0A003200210E0D6E0D2EFED71200F8
:06003C00000000001200AC
:1000420056BE02D0839E01D0838E56BC02D0839CC2
:1000520001D0838C56BA02D0839A01D0838A56B8D3
:1000620002D0839801D083884BB002D0808401D023
:1000720080948082E2DF809256B602D0839E01D0C5
:10008200838E56B402D0839C01D0838C56B202D0A8
:10009200839A01D0838A56B002D0839801D0838894
:1000A2004BB002D0808401D080948082C6DF8092DF
:0C00B2004BA002D0B2DF01D0BBDF120077
:0C00BE004B9055C056F0BEDF4B80120086
:1000CA00086A080E0C6E003408360450085ED8B070
:0E00DA0002D00826D89000360C2EF5D7120062
:1000E8000900F5CFE6FF0006FBE10106F9E1120081
:1000F800929292949598959A959C959E80928094C8
:10010800839E839C839A839885DF84DF83DF838A39
:10011800838880828FDF80927DDF80828BDF809270
:1001280079DF808287DF809275DF8398808282DF23
:10013800809270DF80827EDF8092839A838E8082B5
:1001480079DF809267DF839E8388808273DF809265
:10015800839880826FDF80925DDF80826BDF809280
:100168008388808267DF809255DF8398808262DF90
:100178008092838E838C838A838880825BDF8092DF
:0601880049DF4B8012006C
:10018E000FD0800E506E19D0C00E506E16D0940E39
:10019E00506E13D0D40E506E10D0800E506E0DD007
:1001AE005050010AEEE05050020AEEE05050030AA1
:1001BE00EEE05050040AEEE0F0D75104006E5050BD
:1001CE00002600C050F000C056F034DF4B90546A49
:1001DE0054505224E96E000E5320EA6EEE520BE09C
:1001EE0054505224E96E000E5320EA6EEECF55F0B5
:0A01FE005FDF542AEDD74B8012009A
:100208000FD0800E506E19D0C00E506E16D0940EBE
:10021800506E13D0D40E506E10D0800E506E0DD08C
:100228005050010AEEE05050020AEEE05050030A26
:10023800EEE05050040AEEE0F0D75104006E505042
:10024800002600C050F04B8000C056F0F6DE4B9000
:0A02580052C056F0F2DE4B80120097
:100262000B6A0A6A096A00500402F4CF09F0F3CF5C
:1002720008F001500502F4CF0BF0F3CF0AF0005062
:100282000502F3500926F4500A22E86A0B220150B3
:100292000402F3500926F4500A22E86A0B2208C02D
:1002A20000F009C001F00AC002F00BC003F0120016
:1002B20079EC02F020DF7F6A7E6AFF0E936E010EF8
:1002C200566EBEDE0C0E566EBBDE4A6A010E506ED4
:1002D200010E516E1A0E526E000E536E57DF010E52
:1002E200506E0B0E516E150E526E000E536E4EDF97
:1002F20081AAE1D0030E0B6E8A0E0C6E550E0D6EA6
:100302000D2EFED70C2EFCD70B2EFAD700000000C4
:10031200040E4A5CD8B07BD081AA05D081AA01D054
:10032200FDD74A2A3ED081A83CD0060E0B6E130E92
:100332000C6EAD0E0D6E0D2EFED70C2EFCD70B2EB5
:10034200FAD700000000240E016E000E026E4A5021
:100352000126D8B0022A01C0E9FF02C0EAFFEE502E
:10036200010F006E01C0E1FF02C0E2FF00C0E6FF24
:10037200240E4E6E000E4F6E4A504E26D8B04F2AB3
:100382004EC0E9FF4FC0EAFFEECF00F00A0E046E46
:100392009BDE08C000F04EC0E1FF4FC0E2FF00C08C
:1003A200E6FF010E506E4A500B0F516E200E526E38
:1003B2002ADF030E0B6E8A0E0C6E550E0D6E0D2E7D
:1003C200FED70C2EFCD70B2EFAD700000000010E30
:1003D200506E4A500B0F516E240EE96E000EEA6EFB
:1003E2004A50E926D8B0EA2A300EEE24526E0BDFCC
:1003F200030E0B6E8A0E0C6E550E0D6E0D2EFED771
:100402000C2EFCD70B2EFAD70000000081D7E80E85
:10041200006E030E016E24C004F0000E056E20DF94
:10042200640E2502F3CF02F0F4CF03F00250002451
:100432004C6E035001204D6E0A0E2602F3CF00F0DF
:10044200F4CF01F000504C2601504D2227504C268B
:10045200000E4D22010E566EF3DD4D50491802E199
:1004620048504C180AE1010E506E010E516E370EC3
:10047200526E000E536E8ADE09D0010E506E010ECE
:10048200516E280E526E000E536E80DE0B0E0B6EF6
:10049200260E0C6E5D0E0D6E0D2EFED70C2EFCD7A9
:1004A2000B2EFAD700000000246A256A266A276A02
:0A04B200010E566EC5DD09D7FFD715
:1004F20010EE15F0350E006E010E016EBC0EF66E9A
:0E050200040EF76E000EF86E74EC00F012009E
:0504BC002A2A2A2A0093
:0A04C10070617373776F72643A0084
:0404CB00000000002D
:0F04CF0077726F6E672070617373776F7264005E
:1004DE00636F72726563742070617373776F726489
:0104EE00000D
:0204EF00D20435
:020000040030CA
:0D000100021F1EFF8B81FF0FC00FE00F409C
:00000001FF
