:02000000352D9C
:0E000600213083120313FD00FD0B07280800B4
:100014000F3083120313FC004730FD00FD0B102842
:0A002400FC0B10280000000008008B
:06002E00000000000800C4
:100034007B15FB1F24280130F300F201F101F001CC
:08004400FA0DF20CFF30080078
:10004C0083120313F801F9011030FC00710DF80D47
:10005C00F90D7408F8027508031C750FF9020318E2
:10006C003E287408F80775080318750FF907031074
:0A007C00F00DF10DFC0B2C2808001C
:0E008600F201F101F001F801F3010030080071
:1000940083160313C31B5128831288125328831217
:1000A40088168316431B5928831208125B2883126F
:1000B40008168316C31A61288312881163288312D1
:1000C40088158316431A6928831208116B28831232
:1000D40008158316311871288312081473288312A3
:1000E40008108814172088108316C3197C288312DB
:1000F40088127E2883128816831643198428831253
:1001040008128628831208168316C3188C288312B3
:1001140088118E2883128815831643189428831215
:100124000811962883120815831631189C28831207
:1001340008149E2883120810881417208810831628
:0C014400311CA6280A20A7280320080070
:08015000FA1FF2130030080051
:10015800710DF80DF90D7408F8027508031C750F78
:10016800F902F00DF10D0F30FC00710DF80DF90DCD
:100178007408701CC528F8027508031C750FF9026D
:10018800CA28F80775080318750FF907F00DF10D5F
:10019800FC0BB9287018D6287408F80775080318D6
:0801A800750FF90700000800C3
:1001B0008316031331103E08C3004A2083163114FE
:0201C000080035
:1001C2007B14FB1FEC28F201FA1FFF30F200F10052
:0A01D200F000FA0DF20CFF300800F7
:1001DC0083160313C101053041020318FC284108A2
:1001EC004007840020308000C10AF12841084007F4
:1001FC0084008001C10341084007C2000A30F400AA
:10020C00F5013E08F0003F08F10026207808F000C8
:10021C007908F1003030F00783164208840070082A
:10022C0080000A30F400F5013E08F0003F08F100B0
:10023C00262070088316BE007108BF0000307106BE
:10024C00031D2A2900307006031D2D292F29C103F7
:04025C00012908006C
:10026000FB14FB1F3A29FF30F300F200F100F0000D
:08027000FA0DF20CFF3008004A
:100278000E3083120313FD00FD0B40290000080017
:1002880083120313FB01FA01F9018030F800F10C25
:10029800F00C031C58297408F90775080318750F22
:1002A800FA070318FB0A0310F01F60297408FA07FD
:1002B80075080318750FFB07FB0CFA0CF90CF80C02
:1002C800031C4B297B08F3007A08F2007908F10037
:0602D8007808F0000800A8
:1002DE00A0017208031D84297108F2007008F10054
:1002EE00F001A0157208031D84297108F200F101B6
:1002FE00A01120167208031992292008F302031D7B
:10030E00031C96290310F21B9A29F00DF10DF20D24
:10031E00F30B8A2996290130FC0043209D290230D7
:0E032E00FC001A209D290430FC00A8200800C5
:0E033C008316031325088A0024088200080097
:10034A00831603133508831203178D0083168C1343
:0A035A000C1483120C08F0000800D8
:10036400C330831203139F05C0309F0083163508E2
:10037400F000F00D7010F00D7010700883129F04DF
:100384003409F000700883169F059F1783121F1409
:100394003C219F149F1CD0290000CC291F101E084B
:1003A400F100F00183161E08F0040030F104080087
:1003B4009E218A110A128000840AA40A0319A50A3C
:0803C400F003031DDA29080013
:1003CC00831603131208013EF000F1010318F10A21
:1003DC003508F400F50144210630F2007008F400F1
:1003EC007108F50072080319002AF50CF40CF513CA
:1003FC00FF3EF9290430F1007408F000710803196C
:10040C000B2AF00D7010FF3E052A30307005F300FA
:10041C007408F0007508F100F10CF00CF113F10CFC
:10042C00F00CF113700895000F30970573089704C2
:02043C000800B6
:10043E00831603130711831212150C30970408004C
:10044E0083120313FB017308031D770803197E2A19
:10045E0072087606FA007708F3077E30031C3B2AF3
:10046E00F3020318812A3E2AF302031C842A72081F
:10047E00F8007108FC007008FD00F817F61703105D
:10048E00F201F101F0011830A0007D1C582A740809
:10049E00F00775080318750FF10776080318760F25
:1004AE00F207F20CF10CF00CF80CFC0CFD0C031026
:1004BE00A00B4C2AF21B682AF80DF00DF10DF20D6F
:1004CE00F3037B1B701C7A2AF81F7A2AF00A031991
:1004DE00F10A0319F20A031D7A2AF20CF10CF00C40
:1004EE00F30A0319812AFA1FF2130030862A01300B
:1004FE004320862A02303021862A04301A2000003A
:02050E000800E3
:10051000831203137008F8007108F000F101F20172
:10052000F301FB01FC019630F300FA01F01F9E2A53
:10053000F809F009F80A0319F00AFA177008F1002F
:0C0540007808F000F801F2016F210800BB
:10054C00B82A803083160313B500CB2AC030B5000F
:10055C00CB2A9430B500CB2AD430B500CB2A8030CE
:10056C00B500CB2A831603133508013A0319A72AC1
:10057C003508023A0319AC2A3508033A0319AF2A95
:10058C003508043A0319B22AB52A3603F0003508A7
:10059C00F0077008B50031147008C3004A208316A8
:0E05AC0031103708C3004A20831631140800AE
:1005BA0083120313FB01730803191A2B7208FA003A
:1005CA00F2178E30F302F31F1D2BF309F30A0830DA
:1005DA007302031C002BF300F10D7208F100F20103
:1005EA0008307302031C002BF300F10DF1017308AC
:1005FA00031D0310082B73080319082B0310F20CB0
:10060A00F10CF30B032B7B1B711C122B031C122BFB
:10061A00F10A0319F20AF21B292BFA1F2C2BF209F1
:10062A00F109F10A0319F20A2C2BF201F1012C2B20
:10063A007B14FB1F2F2BF201FA1F2F2BFF30F20026
:10064A00F100FA0DF20C2F2B0130FC00312B003097
:10065A00FC00312BFF30FC00FC080319352BE1208C
:0A066A007108F0007208F1000800AA
:1006740083160313881008100811881108128812B1
:1006840083128810081088120812881108110A2091
:100694000A200A20881508158814172088100A20B3
:1006A4008814172088100A208814172088100A201C
:1006B40008118814172088100A208814172088101D
:1006C400881188168814172088100A2088120815A3
:1006D40088141720881008118814172088100A20FD
:1006E40088141720881008158814172088100A20E9
:1006F40008118814172088108816081688150815FC
:0E0704008814172088100A208316311408006C
:100712009B2B803083160313B500AE2BC030B5007F
:10072200AE2B9430B500AE2BD430B500AE2B80305A
:10073200B500AE2B831603133508013A03198A2B31
:100742003508023A03198F2B3508033A0319922B05
:100752003508043A0319952B982B3603F000350817
:10076200F0077008B5007008C3004A2083163110E4
:10077200B80138083707840000080319C82B380865
:10078200370784000008BE00D820B80ABA2B3114FB
:0207920008005D
:0E079400831603130715F03083129705080033
:1007A200831603178C1CD72B0000D12B031335089B
:1007B200831203178D00831603133608831203175F
:1007C2008C0083168C130C150B08F0008B1355301C
:1007D2008D00AA308D008C14F01BF12B8B13F22BA1
:0607E2008B170C1108004A
:1007E80001308312031386003430FC00F130FD0021
:1007F800FD0BFC2BFC0BFC2B00000000061E072C3D
:100808003130F000492C861E0C2C3230F000492C77
:10081800061F112C3330F000492C0230860034308A
:10082800FC00F130FD00FD0B172CFC0B172C000011
:100838000000061E222C3430F000492C861E272C7E
:100848003530F000492C061F2C2C3630F000492C8E
:10085800043086003430FC00F130FD00FD0B322CF2
:10086800FC0B322C00000000061E3D2C3730F00037
:10087800492C861E422C3830F000492C061F472C84
:0C0888003930F000492C4030F00008002E
:1008940083160313BA01BB013508BC003608BD003A
:1008A40080303606F00080307002031D5B2C00306F
:1008B40035020318692C0130BA000030BB0035083A
:1008C400003CBC003608031C013EBD01BD023C08CF
:1008D400BE003D08BF003708C000EE200630B80057
:1008E4000030B9003908003C031D7A2C3808003C5C
:1008F4000318952C38083707F20001303802F0004D
:100904000030031C013E3902F100700837078400EF
:100914000008F00072088400700880000130B802FA
:10092400031CB903742C37088400203080003A0873
:100934003B040319B32CB801B90138083707840004
:100944000008203A031DAA2CB80A0319B90A9F2CDF
:100954000130B802031CB9033808370784002D306E
:040964008000080007
:10096800831203137408003A031DC32C7508003A58
:10097800031DC32CFF30F0007F30F1001C2D8312C3
:100988000313FD01F901F80171087004031900341B
:1009980071087506FA00FA1BFD09FB01F51FD92C31
:1009A800F409F509F40A0319F50AF11FE02CF00916
:1009B800F109F00A0319F10A71087504FA00FA1B23
:1009C800F52CAC207B18082DFD1F0034F009F10927
:1009D800F00A0319F10AF809F909F80A0319F90ADA
:1009E8000034F51F042DF11B002D7108F900700863
:1009F800F800F101F001E82CF101F001F00A0034EF
:100A0800F109F009FB0AE52CF80A0319F90A740838
:100A18007802031DE82C75087902031DE82CF901FA
:100A2800F801F00A0319F10AF11FE82C0000FF345D
:020A38000800B4
:0C0A3A0083120313950117129712080095
:100A460083160313B6013608350784000008031918
:100A5600342D3608350784000008BE00D820B60AB3
:040A6600262D080031
:100A6A00122783160317890101308800F0308600A7
:100A7A00031387010130850083128701860112144E
:100A8A0092147C30831692001D253A230130C3004C
:100A9A004A200C308316C3004A201A30FC00F83072
:100AAA00FD00FD0B562DFC0B562D00000130831660
:100ABA00B5000130B6002530B70089238312EE0154
:100ACA0004306E020318782D6E088316B50083125F
:100ADA006E08213E840000088316B600D1238312D3
:100AEA000313EE0A652DF4237008B3007008403A28
:100AFA0003192C2E3208A03E8400330880000130EE
:100B0A008316B500831232080C3E8316B600831290
:100B1A0033088316B700A6228312B20A3208033CAE
:100B2A0003182C2E0130EF00EE0104306E02031878
:100B3A00B42D6E08A03E840000088316B400831208
:100B4A006E088316B500A5218316031334087006B0
:100B5A000319B12D8312EF018312EE0A9A2D6F0841
:100B6A000319002E01308316C3004A200130831670
:100B7A00B5000130B6004930B70089238312071740
:100B8A0087150B30FB002630FC005D30FD00FD0BA5
:100B9A00CC2DFC0BCC2DFB0BCC2D000000008711BB
:100BAA001530FB004B30FC00BE30FD00FD0BDB2D89
:100BBA00FC0BDB2DFB0BDB2D000007160B30FB00BB
:100BCA002630FC005D30FD00FD0BE92DFC0BE92D04
:100BDA00FB0BE92D000000000712071301308316F2
:100BEA00C3004A2001308316B5000130B6003C30FC
:100BFA00B70089232A2E8312871601308316C30071
:100C0A004A2001308316B5000130B6005E30B700C5
:100C1A0089230630FB001330FC00AD30FD00FD0BCC
:100C2A00142EFC0B142EFB0B142E00000000831252
:100C3A00871201308316C3004A2001308316B5009B
:100C4A000130B6005130B70089238312B2018316EE
:100C5A00B501B2217008B2007108B3008822F630DB
:100C6A00F4002830F5001C30F6008130F700272206
:100C7A00DD2270088316AF007108B0000A30F40054
:100C8A000030F500B42470088316AD007108AE0078
:100C9A007008B5007108B600A630B7004A240230C1
:100CAA00B5000130B6003530B7008923A630B5004B
:100CBA0023250F30BE00D8204330BE00D820003094
:100CCA002E02031D6A2E1E302D02031C7B2E0030BD
:100CDA002E02031D722E20302D0203187B2ECA23EA
:100CEA00CC308316B500E6218710B12E003083166A
:100CFA002E02031D822E20302D02031C932E00305B
:100D0A002E02031D8A2E22302D020318932ECA2387
:100D1A00E6308316B500E6218710B12E003083161F
:100D2A002E02031D9A2E22302D02031CA32ECA2343
:100D3A00FF308316B500E6218710B12E00308316E6
:100D4A002E02031DAA2E1E302D020318B12ECA230D
:100D5A008316B501E62187141A30FC00F830FD002D
:100D6A00FD0BB52EFC0BB52E00001F22782DBC2ED4
:100E2400213084004D3083120313F000C230831646
:0A0E3400A4000630A500DA21080032
:080D84003734373437343734BB
:100D8C0045346E34743465347234203470346134C8
:0A0D9C00733473343A342034003409
:020DA600003417
:020DA800003415
:020DAA003034E3
:0E0DAC00543465346D3470343D3420340034DA
:100DBA0045346E347434653472342034703461349A
:0A0DCA00733473343A3420340034DB
:100DD40057344C34453443344F344D344534003463
:100DE40045346E3474346534723420347034613470
:0A0DF400733473343A3420340034B1
:100DFE0057344F3452344E34473420345034413407
:100E0E0053345334573452344F3444342134003431
:040E1E002034003448
:04400E00F22F000786
:00000001FF
