:020000002D2DA4
:0E000600213083120313FD00FD0B07280800B4
:100014000F3083120313FC004730FD00FD0B102842
:0A002400FC0B10280000000008008B
:06002E00000000000800C4
:100034007B15FB1F24280130F300F201F101F001CC
:08004400FA0DF20CFF30080078
:10004C0083120313F801F9011030FC00710DF80D47
:10005C00F90D7408F8027508031C750FF9020318E2
:10006C003E287408F80775080318750FF907031074
:0A007C00F00DF10DFC0B2C2808001C
:0E008600F201F101F001F801F3010030080071
:1000940083160313C41B5128831288125328831216
:1000A40088168316441B5928831208125B2883126E
:1000B40008168316C41A61288312881163288312D0
:1000C40088158316441A6928831208116B28831231
:1000D40008158316321871288312081473288312A2
:1000E40008108814172088108316C4197C288312DA
:1000F40088127E2883128816831644198428831252
:1001040008128628831208168316C4188C288312B2
:1001140088118E2883128815831644189428831214
:100124000811962883120815831632189C28831206
:1001340008149E2883120810881417208810831628
:0C014400321CA6280A20A728032008006F
:08015000FA1FF2130030080051
:10015800710DF80DF90D7408F8027508031C750F78
:10016800F902F00DF10D0F30FC00710DF80DF90DCD
:100178007408701CC528F8027508031C750FF9026D
:10018800CA28F80775080318750FF907F00DF10D5F
:10019800FC0BB9287018D6287408F80775080318D6
:0801A800750FF90700000800C3
:1001B0008316031332103F08C4004A2083163214FA
:0201C000080035
:1001C2007B14FB1FEC28F201FA1FFF30F200F10052
:0A01D200F000FA0DF20CFF300800F7
:1001DC0083160313C201053042020318FC2842089F
:1001EC004107840020308000C20AF12842084107F0
:1001FC0084008001C20342084107C3000A30F400A6
:10020C00F5013F08F0004008F10026207808F000C6
:10021C007908F1003030F007831643088400700829
:10022C0080000A30F400F5013F08F0004008F100AE
:10023C00262070088316BF007108C00000307106BC
:10024C00031D2A2900307006031D2D292F29C203F6
:04025C00012908006C
:10026000FB14FB1F3A29FF30F300F200F100F0000D
:08027000FA0DF20CFF3008004A
:100278000E3083120313FD00FD0B40290000080017
:1002880083120313FB01FA01F9018030F800F10C25
:10029800F00C031C58297408F90775080318750F22
:1002A800FA070318FB0A0310F01F60297408FA07FD
:1002B80075080318750FFB07FB0CFA0CF90CF80C02
:1002C800031C4B297B08F3007A08F2007908F10037
:0602D8007808F0000800A8
:1002DE00A0017208031D84297108F2007008F10054
:1002EE00F001A0157208031D84297108F200F101B6
:1002FE00A01120167208031992292008F302031D7B
:10030E00031C96290310F21B9A29F00DF10DF20D24
:10031E00F30B8A2996290130FC0043209D290230D7
:0E032E00FC001A209D290430FC00A8200800C5
:0E033C008316031326088A0025088200080095
:10034A00831603133608831203178D0083168C1342
:0A035A000C1483120C08F0000800D8
:10036400C330831203139F05C0309F0083163608E1
:10037400F000F00D7010F00D7010700883129F04DF
:100384003409F000700883169F059F1783121F1409
:100394003C219F149F1CD0290000CC291F101E084B
:1003A400F100F00183161E08F0040030F104080087
:1003B4009E218A110A128000840AA50A0319A60A3A
:0803C400F003031DDA29080013
:1003CC00831603131208013EF000F1010318F10A21
:1003DC003608F400F50144210630F2007008F400F0
:1003EC007108F50072080319002AF50CF40CF513CA
:1003FC00FF3EF9290430F1007408F000710803196C
:10040C000B2AF00D7010FF3E052A30307005F300FA
:10041C007408F0007508F100F10CF00CF113F10CFC
:10042C00F00CF113700895000F30970573089704C2
:02043C000800B6
:10043E00831603130711831212150C30970408004C
:10044E0083120313FB017308031D770803197E2A19
:10045E0072087606FA007708F3077E30031C3B2AF3
:10046E00F3020318812A3E2AF302031C842A72081F
:10047E00F8007108FC007008FD00F817F61703105D
:10048E00F201F101F0011830A0007D1C582A740809
:10049E00F00775080318750FF10776080318760F25
:1004AE00F207F20CF10CF00CF80CFC0CFD0C031026
:1004BE00A00B4C2AF21B682AF80DF00DF10DF20D6F
:1004CE00F3037B1B701C7A2AF81F7A2AF00A031991
:1004DE00F10A0319F20A031D7A2AF20CF10CF00C40
:1004EE00F30A0319812AFA1FF2130030862A01300B
:1004FE004320862A02303021862A04301A2000003A
:02050E000800E3
:10051000831203137008F8007108F000F101F20172
:10052000F301FB01FC019630F300FA017008F100C1
:0C0530007808F000F801F2016F210800CB
:10053C00B02A803083160313B600C32AC030B6002D
:10054C00C32A9430B600C32AD430B600C32A8030F4
:10055C00B600C32A831603133608013A03199F2ADF
:10056C003608023A0319A42A3608033A0319A72AB3
:10057C003608043A0319AA2AAD2A3703F0003608C4
:10058C00F0077008B60032147008C4004A208316B5
:0E059C0032103808C4004A20831632140800BA
:1005AA0083120313FB0173080319122B7208FA0052
:1005BA00F2178E30F302F31F152BF309F30A0830F2
:1005CA007302031CF82AF300F10D7208F100F2011C
:1005DA0008307302031CF82AF300F10DF1017308C5
:1005EA00031D0310002B73080319002B0310F20CD0
:1005FA00F10CF30BFB2A7B1B711C0A2B031C0A2B25
:10060A00F10A0319F20AF21B212BFA1F242BF20911
:10061A00F109F10A0319F20A242BF201F101242B40
:10062A007B14FB1F272BF201FA1F272BFF30F20046
:10063A00F100FA0DF20C272B0130FC00292B0030B7
:10064A00FC00292BFF30FC00FC0803192D2BE120AC
:0A065A007108F0007208F1000800BA
:1006640083160313881008100811881108128812C1
:1006740083128810081088120812881108110A20A1
:100684000A200A20881508158814172088100A20C3
:100694008814172088100A208814172088100A202C
:1006A40008118814172088100A208814172088102D
:1006B400881188168814172088100A2088120815B3
:1006C40088141720881008118814172088100A200D
:1006D40088141720881008158814172088100A20F9
:1006E400081188141720881088160816881508150C
:0E06F4008814172088100A208316321408007C
:10070200932B803083160313B600A62BC030B6009D
:10071200A62B9430B600A62BD430B600A62B803080
:10072200B600A62B831603133608013A0319822B4F
:100732003608023A0319872B3608033A03198A2B23
:100742003608043A03198D2B902B3703F000360834
:10075200F0077008B6007008C4004A2083163210F1
:10076200B90139083807840000080319C02B390879
:10077200380784000008BF00D820B90AB22B32140F
:0207820008006D
:0E078400831603130715F03083129705080043
:10079200831603178C1CCF2B0000C92B03133608BA
:1007A200831203178D00831603133708831203176E
:1007B2008C0083168C130C150B08F0008B1355302C
:1007C2008D00AA308D008C14F01BE92B8B13EA2BC1
:0607D2008B170C1108005A
:1007D80001308312031386003430FC00F130FD0031
:1007E800FD0BF42BFC0BF42B00000000061EFF2B66
:1007F8003130F000412C861E042C3230F000412CA0
:10080800061F092C3330F000412C023086003430AA
:10081800FC00F130FD00FD0B0F2CFC0B0F2C000031
:100828000000061E1A2C3430F000412C861E1F2CA6
:100838003530F000412C061F242C3630F000412CB6
:10084800043086003430FC00F130FD00FD0B2A2C0A
:10085800FC0B2A2C00000000061E352C3730F00057
:10086800412C861E3A2C3830F000412C061F3F2CB4
:0C0878003930F000412C4030F000080046
:1008840083160313BB01BC013608BD003708BE0044
:1008940080303706F00080307002031D532C003086
:1008A40036020318612C0130BB000030BC0036084E
:1008B400003CBD003708031C013EBE01BE023D08DA
:1008C400BF003E08C0003808C100EE200630B90061
:1008D4000030BA003A08003C031D722C3908003C71
:1008E40003188D2C39083807F20001303902F00062
:1008F4000030031C013E3A02F100700838078400FE
:100904000008F00072088400700880000130B90209
:10091400031CBA036C2C38088400203080003B0888
:100924003C040319AB2CB901BA0139083807840017
:100934000008203A031DA22CB90A0319BA0A972CFD
:100944000130B902031CBA033908380784002D307A
:040954008000080017
:10095800831203137408003A031DBB2C7508003A70
:10096800031DBB2CFF30F0007F30F100142D8312E3
:100978000313FD01F901F80171087004031900342B
:1009880071087506FA00FA1BFD09FB01F51FD12C49
:10099800F409F509F40A0319F50AF11FD82CF0092E
:1009A800F109F00A0319F10A71087504FA00FA1B33
:1009B800ED2CAC207B18002DFD1F0034F009F10947
:1009C800F00A0319F10AF809F909F80A0319F90AEA
:1009D8000034F51FFC2CF11BF82C7108F900700885
:1009E800F800F101F001E02CF101F001F00A003407
:1009F800F109F009FB0ADD2CF80A0319F90A740851
:100A08007802031DE02C75087902031DE02CF9011A
:100A1800F801F00A0319F10AF11FE02C0000FF3475
:020A28000800C4
:0C0A2A00831203139501171297120800A5
:100A360083160313B7013708360784000008031925
:100A46002C2D3708360784000008BF00D820B70AC7
:040A56001E2D080049
:100A5A000C2783160317890101308800F0308600BD
:100A6A00031387010130850083128701860112145E
:100A7A0092147C3083169200152532230130C4006B
:100A8A004A200C308316C4004A201A30FC00F83081
:100A9A00FD00FD0B4E2DFC0B4E2D00000130831680
:100AAA00B6000130B7002530B80081238312EE0169
:100ABA0004306E020318702D6E088316B600831276
:100ACA006E08213E840000088316B700C9238312EA
:100ADA000313EE0A5D2DEC237008B3007008403A48
:100AEA000319252E3208A03E840033088000013005
:100AFA008316B600831232080C3E8316B70083129F
:100B0A0033088316B8009E228312B20A3208033CC5
:100B1A000318252E0130EF00EE0104306E0203188F
:100B2A00AC2D6E08A03E840000088316B50083121F
:100B3A006E088316B600A5218316031335087006BE
:100B4A000319A92D8312EF018312EE0A922D6F0861
:100B5A000319F92D01308316C4004A200130831687
:100B6A00B6000130B7004930B80081238312071755
:100B7A0087150630FB001330FC00AD30FD00FD0B7D
:100B8A00C42DFC0BC42DFB0BC42D000000008711E3
:100B9A000630FB001330FC00AD30FD00FD0BD32DF9
:100BAA00FC0BD32DFB0BD32D0000000007160630DB
:100BBA00FB001330FC00AD30FD00FD0BE22DFC0BF9
:100BCA00E22DFB0BE22D0000000007120713013093
:100BDA008316C4004A2001308316B6000130B700DC
:100BEA003C30B8008123232E8312871601308316E6
:100BFA00C4004A2001308316B6000130B7005E30C7
:100C0A00B80081230630FB001330FC00AD30FD0034
:100C1A00FD0B0D2EFC0B0D2EFB0B0D2E0000000004
:100C2A008312871201308316C4004A2001308316CA
:100C3A00B6000130B7005130B80081238312B201E7
:100C4A004030B3008316B601B2217008B3007108B0
:100C5A00B4008822F630F4002830F5001C30F60083
:100C6A008130F7002722D52270088316B000710858
:100C7A00B1000A30F4000030F500AC247008831685
:100C8A00AE007108AF007008B6007108B700A7304F
:100C9A00B80042240230B6000130B7003530B8003F
:100CAA008123A730B6001B250A30BF00D820433065
:100CBA00BF00D82000302F02031D652E1E302E02E1
:100CCA00031C762E00302F02031D6D2E20302E02BB
:100CDA000318762EC223CC308316B600E62187107D
:100CEA00AC2E003083162F02031D7D2E20302E02DB
:100CFA00031C8E2E00302F02031D852E22302E0259
:100D0A0003188E2EC223E6308316B600E62187101A
:100D1A00AC2E003083162F02031D952E22302E0290
:100D2A00031C9E2EC223FF308316B600E6218710CD
:100D3A00AC2E003083162F02031DA52E1E302E0264
:100D4A000318AC2EC2238316B601E62187141A3083
:100D5A00FC00F830FD00FD0BB02EFC0BB02E00009D
:060D6A001F22702DB72EC0
:100E1800213084004D3083120313F000BD30831657
:0A0E2800A5000630A600DA2108003C
:080D7A003734373437343734C5
:100D820045346E34743465347234203470346134D2
:0A0D9200733473343A342034003413
:020D9C00003421
:020D9E0000341F
:020DA0003034ED
:0E0DA200543465346D3470343D3420340034E4
:100DB00045346E34743465347234203470346134A4
:0A0DC000733473343A3420340034E5
:100DCA0057344C34453443344F344D34453400346D
:100DDA0045346E347434653472342034703461347A
:0A0DEA00733473343A3420340034BB
:100DF40057344F3452344E34473420345034413411
:100E040053345334573452344F344434213400343B
:040E14002034003452
:04400E00F22F000786
:00000001FF
